:100000000C942A000C943F000C943F000C943F0089
:100010000C943F000C943F000C943F000C943F0064
:100020000C943F000C943F000C943F000C943F0054
:100030000C943F000C943F000C943F000C943F0044
:100040000C943F000C943F000C943F000C943F0034
:100050000C943F0011241FBECFE5D8E0DEBFCDBF1A
:1000600010E0A0E6B0E0E6E6F1E002C005900D92F7
:10007000A03AB107D9F70E9497000C94B1000C94F4
:100080000000CF93DF9300D0CDB7DEB7FC019FEF28
:1000900092BB95BB8081823459F028F4813479F485
:1000A00080E690E00AC0843431F08F3451F007C00C
:1000B00088E690E002C080E790E09A83898380E040
:1000C00003C088E790E0F9CF8830F0F7282F30E0C0
:1000D000F901E058FF4F908195BB49815A81FA019F
:1000E000E20FF31F908192BBE7E5F2E03197F1F761
:1000F00000C000008F5FE8CF8FE087BB8CE384BB3C
:100100000895623069F020F4613061F49BEF09C01A
:10011000633021F0643031F49FEE03C09FED01C0E5
:1001200097EF95BB98B3907F892B88BB08950E9469
:100130007C00C1E0D0E06C2F8D2F0E948100C43084
:1001400011F0CF5F01C0C1E02FEF83ED90E32150AC
:1001500080409040E1F700C00000DF5FDA3059F7DF
:06016000E8CFF894FFCF88
:10016600FFFF01767601FFFFFFFF00B6B6C9FFFF6E
:10017600FFFF003E5DC9FFFFFFE3DD3E3EDDE3FF1F
:1001860080402010080402013000320031003300A4
:100196003500340036003800370039003B003A009D
:00000001FF
