:100000000C942A000C943F000C943F000C943F0089
:100010000C943F000C943F000C943F000C943F0064
:100020000C943F000C943F000C943F000C943F0054
:100030000C943F000C943F000C943F000C943F0044
:100040000C943F000C943F000C943F000C943F0034
:100050000C943F0011241FBECFE5D8E0DEBFCDBF1A
:1000600010E0A0E6B0E0E6E2F1E002C005900D92FB
:10007000A63AB107D9F70E947C000C9491000C9429
:100080000000CF93DF9300D0CDB7DEB7FC019FEF28
:1000900092BB95BB8081823459F028F4813479F485
:1000A00080E690E00AC0843431F08F3451F007C00C
:1000B00088E690E002C080E790E09A83898380E040
:1000C00003C088E790E0F9CF8830F0F7282F30E0C0
:1000D000F901E058FF4F908195BB49815A81FA019F
:1000E000E20FF31F908192BBE7E5F2E03197F1F761
:1000F00000C000008F5FE8CFCF93DF9300D000D027
:100100001F92CDB7DEB785E0E8E8F0E0DE0111969A
:1001100001900D928A95E1F7CE0101960E9441006F
:06012000FFCFF894FFCFB1
:10012600FFFF01767601FFFFFFFF00B6B6C9FFFFAE
:10013600FFFF003E5DC9FFFFFFE3DD3E3EDDE3FF5F
:1001460080402010080402014142444F0030003232
:1001560000310033003500340036003800370039EE
:06016600003B003A00001E
:00000001FF
