:100000000C942A000C943F000C943F000C943F0089
:100010000C943F000C943F000C943F000C943F0064
:100020000C943F000C943F000C943F000C943F0054
:100030000C943F000C943F000C943F000C943F0044
:100040000C943F000C943F000C943F000C943F0034
:100050000C943F0011241FBECFE5D8E0DEBFCDBF1A
:1000600010E0A0E6B0E0EAE6F2E002C005900D92F2
:10007000A63AB107D9F70E9428010C9433010C94D9
:1000800000008FEF81BB84BB0895CF93DF9300D036
:10009000CDB7DEB7FC018081823459F028F4813479
:1000A00079F480E690E00AC0843431F08F3451F066
:1000B00007C088E690E002C080E790E09A838983D9
:1000C00080E003C088E790E0F9CF8830F0F7282F70
:1000D00030E0F901E058FF4F908195BB49815A818A
:1000E000FA01E20FF31F908192BBE7E5F2E031974E
:1000F000F1F700C000008F5FE8CF98B39F70282F02
:10010000207F922B98BBAE98AF9A35E03A95F1F7E5
:100110000000AF98EFE8F1E03197F1F700C0000080
:1001200028B32F70F0E18F9FC0011124822B88BB70
:10013000AF9A35E03A95F1F70000AF988FE891E07B
:100140000197F1F700C00000089598B39F70282F21
:10015000207F922B98BBAE9AAF9A35E03A95F1F793
:100160000000AF9828B32F7030E1839FC0011124A5
:10017000822B88BBAF9A85E08A95F1F70000AF9893
:100180008FE891E00197F1F700C00000089580EF3B
:1001900087BB84B3806C84BBAF9888E20E947D00EB
:1001A0008CE00E947D0081E00E947D008FE39FE152
:1001B0000197F1F700C0000086E00C947D00CF931A
:1001C000DF9300D0CDB7DEB790E8998390EC9A83A7
:1001D000FE01E80FF11D8181860F0E947D008FE8EE
:1001E00091E00197F1F700C000000F900F90DF91B0
:1001F000CF9108950F931F93CF938C01C0E0F80126
:10020000EC0FF11D8081882321F0CF5F0E94A500B3
:10021000F6CFCF911F910F9108958FE087BB8CE3AC
:1002200084BB0895623069F020F4613061F49BEF83
:1002300009C0633021F0643031F49FEE03C09FEDBC
:1002400001C097EF95BB98B3907F892B88BB089529
:100250000E94C70063E081E00E94DF0088E890E030
:0A0260000E94FA00FFCFF894FFCFD0
:10026A00FFFF01767601FFFFFFFF00B6B6C9FFFF69
:10027A00FFFF003E5DC9FFFFFFE3DD3E3EDDE3FF1A
:10028A0080402010080402014162646F4F00300070
:10029A0032003100330035003400360038003700B0
:0602AA0039003B003A00A0
:00000001FF
