:100000000C942A000C943F000C943F000C943F0089
:100010000C943F000C943F000C943F000C943F0064
:100020000C943F000C943F000C943F000C943F0054
:100030000C943F000C943F000C943F000C943F0044
:100040000C943F000C943F000C943F000C943F0034
:100050000C943F0011241FBECFE5D8E0DEBFCDBF1A
:1000600010E0A0E6B0E0E8E3F9E002C005900D92F0
:10007000AE38B107D9F70E949C010C949A040C94F5
:1000800000008FEF81BB84BB0895CF93DF9300D036
:10009000CDB7DEB7FC018081823459F028F4813479
:1000A00079F480E690E00AC0843431F08F3451F066
:1000B00007C088E690E002C080E790E09A838983D9
:1000C00080E003C088E790E0F9CF8830F0F7282F70
:1000D00030E0F901E058FF4F908195BB49815A818A
:1000E000FA01E20FF31F908192BBE7E5F2E031974E
:1000F000F1F700C000008F5FE8CF98B39F70282F02
:10010000207F922B98BBAE98AF9A35E03A95F1F7E5
:100110000000AF98EFE8F1E03197F1F700C0000080
:1001200028B32F70F0E18F9FC0011124822B88BB70
:10013000AF9A35E03A95F1F70000AF988FE891E07B
:100140000197F1F700C00000089598B39F70282F21
:10015000207F922B98BBAE9AAF9A35E03A95F1F793
:100160000000AF9828B32F7030E1839FC0011124A5
:10017000822B88BBAF9A85E08A95F1F70000AF9893
:100180008FE891E00197F1F700C00000089580EF3B
:1001900087BB84B3806C84BB25B327FB222720F95F
:1001A00035B381E090E002C0880F991F2A95E2F7ED
:1001B00080959095832385BB88E20E947D008CE02A
:1001C0000E947D0081E00E947D008FE39FE1019706
:1001D000F1F700C0000086E00C947D00CF93DF9320
:1001E00000D0CDB7DEB790E8998390EC9A83FE01FA
:1001F000E80FF11D8181860F0E947D008FE891E05C
:100200000197F1F700C000000F900F90DF91CF91A0
:1002100008950F931F93CF938C01C0E0F801EC0F6A
:10022000F11D8081882321F0CF5F0E94A500F6CFC9
:10023000CF911F910F91089581E00E947D008FE37F
:100240009FE10197F1F700C0000008950F931F93FD
:10025000CF93DF93CDB7DEB7A0970FB6F894DEBF8C
:100260000FBECDBF9F938F9388E890E09F938F93AD
:100270008E010F5F1F4F1F930F930E94B001C801A3
:100280000E9409010F900F900F900F900F900F9008
:10029000A0960FB6F894DEBF0FBECDBFDF91CF9111
:1002A0001F910F9108950F931F93CF93DF93CDB7B5
:1002B000DEB7A0970FB6F894DEBF0FBECDBF9F93F9
:1002C0008F937F936F938BE890E09F938F938E0132
:1002D0000F5F1F4F1F930F930E94B001C8010E9430
:1002E00009010FB6F894DEBF0FBECDBFA0960FB6C2
:1002F000F894DEBF0FBECDBFDF91CF911F910F915C
:1003000008958FE087BB8CE384BB0895623069F069
:1003100020F4613061F49BEF09C0633021F0643058
:1003200031F49FEE03C09FED01C097EF95BB98B3EA
:10033000907F892B88BB08950E94C700C0E08C2F56
:1003400090E00E9426012FEF8CEB9FE1215080402E
:100350009040E1F700C000000E941C01CF5FEFCF8A
:10036000AEE0B0E0E6EBF1E00C9471040D891E897B
:1003700086E08C831A8309838FEF9FE79E838D83AA
:10038000AE01475E5F4F6F89788DCE0101960E9466
:10039000D201EF81F885E00FF11F10822E96E4E084
:1003A0000C948D04ABE0B0E0E8EDF1E00C94630454
:1003B0006C017B018A01FC0117821682838181FF17
:1003C000CCC1CE0101963C01F6019381F70193FD6A
:1003D000859193FF81917F01882309F4BAC1853209
:1003E00039F493FD859193FF81917F01853229F442
:1003F000B60190E00E94C903E7CF912C212C312C4B
:10040000FFE1F315D8F08B3279F038F4803279F0CF
:100410008332A1F4232D20611DC08D3261F0803321
:1004200069F4232D216016C0832D8260382EE32DC0
:10043000E4603E2E2AC0F32DF8601DC037FC2DC0AD
:1004400020ED280F2A3040F08E32B9F436FC81C1FD
:10045000232D2064322E19C036FE06C08AE0989EF5
:10046000200D1124922E11C0EAE02E9E200D1124A1
:10047000222EF32DF0623F2E08C08C3621F4832DFE
:100480008068382E02C0883641F4F70193FD8591CB
:1004900093FF81917F018111B3CF982F9F7D955458
:1004A000933028F40C5F1F4F9FE399830DC0833670
:1004B00031F0833771F0833509F059C021C0F8015C
:1004C000808189830E5F1F4F88248394912C530170
:1004D00013C02801F2E04F0E511CF801A080B1803A
:1004E00036FE03C0692D70E002C06FEF7FEFC501DB
:1004F0000E94BE034C018201F32DFF773F2E16C0F0
:10050000280122E0420E511CF801A080B18036FE85
:1005100003C0692D70E002C06FEF7FEFC5010E943C
:10052000B3034C01F32DF0683F2E820133FC1BC056
:10053000822D90E088169906B0F4B60180E290E032
:100540000E94C9032A94F4CFF50137FC859137FE48
:1005500081915F01B60190E00E94C90321102A94A5
:1005600021E0821A91088114910471F7E8C0843661
:1005700011F0893641F5F80137FE07C060817181BD
:10058000828193810C5F1F4F08C060817181072EAB
:10059000000C880B990B0E5F1F4FF32DFF763F2E3B
:1005A00097FF09C090958095709561957F4F8F4F0B
:1005B0009F4FF0683F2E2AE030E0A3010E9405041F
:1005C000882E861845C0853731F4232D2F7EB22E14
:1005D0002AE030E025C0932D997FB92E8F36C1F0E7
:1005E00018F4883579F0B5C0803719F0883721F0D4
:1005F000B0C0E92FE061BE2EB4FE0DC0FB2DF4604B
:10060000BF2E09C034FE0AC0292F2660B22E06C0B4
:1006100028E030E005C020E130E002C020E132E017
:10062000F801B7FE07C060817181828193810C5F00
:100630001F4F06C06081718180E090E00E5F1F4F08
:10064000A3010E940504882E8618FB2DFF773F2EFC
:1006500036FE0DC0232D2E7FA22E891458F434FEB1
:100660000BC032FC09C0832D8E7EA82E05C0B82C8D
:10067000A32C03C0B82C01C0B92CA4FE0FC0FE01EE
:10068000E80DF11D8081803321F49A2D997EA92EE9
:1006900009C0A2FE06C0B394B39404C08A2D867824
:1006A00009F0B394A3FC11C0A0FE06C0B21488F4F4
:1006B000280C922C9B180EC0B21460F4B60180E294
:1006C00090E00E94C903B394F7CFB21418F42B182A
:1006D00002C0982C212CA4FE10C0B60180E390E04B
:1006E0000E94C903A2FE17C0A1FC03C088E790E0E6
:1006F00002C088E590E0B6010CC08A2D867859F0DA
:10070000A1FE02C08BE201C080E2A7FC8DE2B6012F
:1007100090E00E94C903891438F4B60180E390E0A8
:100720000E94C9039A94F7CF8A94F301E80DF11D52
:100730008081B60190E00E94C9038110F5CF22208C
:1007400009F442CEB60180E290E00E94C9032A94E7
:10075000F6CFF6018681978102C08FEF9FEF2B962F
:10076000E2E10C947F04FC0105906150704001109F
:10077000D8F7809590958E0F9F1F0895FC016150CA
:10078000704001900110D8F7809590958E0F9F1FB3
:1007900008950F931F93CF93DF93FB01238121FDD6
:1007A00003C08FEF9FEF2CC022FF16C046815781F8
:1007B000248135814217530744F4A081B1819D0102
:1007C0002F5F3F4F318320838C93268137812F5FAA
:1007D0003F4F3783268314C08B01EC01FB0100845B
:1007E000F185E02D0995892BE1F6D80116968D91BA
:1007F0009C911797019617969C938E931697CE010E
:10080000DF91CF911F910F910895FA01AA27283007
:1008100051F1203181F1E8946F936E7F6E5F7F4FCD
:100820008F4F9F4FAF4FB1E03ED0B4E03CD0670F49
:10083000781F891F9A1FA11D680F791F8A1F911D9C
:10084000A11D6A0F711D811D911DA11D20D009F4EC
:1008500068943F912AE0269F11243019305D31932E
:10086000DEF6CF010895462F4770405D4193B3E017
:100870000FD0C9F7F6CF462F4F70405D4A3318F0BE
:10088000495D31FD4052419302D0A9F7EACFB4E06F
:10089000A6959795879577956795BA95C9F7009727
:1008A0006105710508959B01AC010A2E06945795C8
:1008B000479537952795BA95C9F7620F731F841F1F
:1008C000951FA01D08952F923F924F925F926F92B5
:1008D0007F928F929F92AF92BF92CF92DF92EF92D0
:1008E000FF920F931F93CF93DF93CDB7DEB7CA1B51
:1008F000DB0B0FB6F894DEBF0FBECDBF09942A887C
:10090000398848885F846E847D848C849B84AA8423
:10091000B984C884DF80EE80FD800C811B81AA81B0
:10092000B981CE0FD11D0FB6F894DEBF0FBECDBF7B
:08093000ED010895F894FFCFDA
:10093800FFFF01767601FFFFFFFF00B6B6C9FFFF94
:10094800FFFF003E5DC9FFFFFFE3DD3E3EDDE3FF45
:0E09580080402010080402012564002566007E
:00000001FF
