:100000000C942A000C943F000C943F000C943F0089
:100010000C943F000C943F000C943F000C943F0064
:100020000C943F000C943F000C943F000C943F0054
:100030000C943F000C943F000C943F000C943F0044
:100040000C943F000C943F000C943F000C943F0034
:100050000C943F0011241FBECFE5D8E0DEBFCDBF1A
:1000600010E0A0E6B0E0E8EFF0E002C005900D92ED
:10007000A837B107D9F70E9441000C947A000C947C
:1000800000008C9A8D9A8E9A8F9A9498959A969A47
:10009000979A2FEF83ED90E3215080409040E1F755
:1000A00000C00000949A9598969A979A2FEF83ED46
:1000B00090E3215080409040E1F700C00000949A06
:1000C000959A9698979A2FEF83ED90E32150804070
:1000D0009040E1F700C00000949A959A969A9798FC
:1000E0002FEF83ED90E3215080409040E1F700C076
:0800F0000000CBCFF894FFCF14
:1000F800300032003100330035003400360038005B
:08010800370039003B003A000A
:00000001FF
